:02000004C0D06A
:10000000F0B503AF8DB062B600F026FC1E480024A8
:10001000B022214600F0D2FC1C4E30680B9001AD9E
:10002000284602F049FAA88535601949084205D0EA
:1000300001A8002181850B9830601FE000F064FE6C
:1000400001F018FA204602F099F80125284602F03E
:1000500095F8E80701462C310E4A11605060906017
:10006000D460146100F000FA00F0BEFA00F00EFB5C
:1000700001A8818D0B983060002902D100200DB0BD
:10008000F0BD02F025FAC04680180020A819002013
:10009000FFFF000030190020B0B502AF05460F2069
:1000A00028400024012813D0022813D1002908D0A9
:1000B0000B4801F037FA68B2002809DA01F064F958
:1000C00006E0412081000648002201F065FA04465E
:1000D0002046B0BD03480068022102F0F9F9C0468D
:1000E000F8190020A819002080B500AF00F080FFAB
:1000F00080BD0000F0B503AF85B0D74E3078401F0B
:10010000092800D99FE14000784480884000874456
:1001100009009A019A019A019A019A019A012D0007
:100120005C008B00CD4E012030760025F561344611
:100130001834204601F0D8F90146F161C9488142DE
:1001400000D0B9E003203076F561204601F0CCF90B
:10015000F06100F003FEB5603068002800D172E164
:10016000F069BF49884200D0A3E06CE1BB4D01209B
:10017000287600200490E8612C461834204601F0CF
:10018000B3F9E861B649884200D15CE1002800D1AA
:1001900059E1B449884200D0C3E00320AF490D467D
:1001A0002876049EEE61204601F09EF9E86100F099
:1001B000D5FDAE602868002800D144E1A748C06999
:1001C000A749884200D0A9E03DE1A44D6868A9682C
:1001D000814200D337E1012028760026EE612C46CB
:1001E0001834204601F080F9E8619D49884200D129
:1001F00029E1002800D126E19A49884200D0C0E0D8
:1002000003202876EE61204601F06EF9E86100F0E7
:10021000A5FDAE602868002800D114E1E869904986
:10022000884200D0AAE00EE100F098FD8B4C00203F
:10023000A0602168002900D105E1E169884A914266
:100240001AD100E16168884200D3FCE001F088F92E
:10025000002800D0F7E0A068E168382568432268EC
:100260001018002900D1A9E08847002800D0A5E097
:10027000A068401CA06021680029E3D1E3E0706819
:10028000854200D3DFE001F06BF9002800D0DAE00E
:10029000B068F1683824604332681018002900D132
:1002A00098E08847002800D094E0B068451CB5600D
:1002B00030680028E3D1C6E030690028664B00D1E1
:1002C000C1E0674A914200D1BDE0002900D1BAE007
:1002D000D978490800F012FFB5E0604840680499F9
:1002E000814200D3AFE001F03BF9002800D0AAE042
:1002F0005A4802469068D168382460431268101842
:10030000002900D184E08847002800D080E05348CD
:1003100001468868401C0490886008680028DCD189
:1003200091E04E488188049101680391F479B37992
:1003300075793279F678C1686846066041601202C4
:100340002A431B0223430398049900F081FD7AE0BD
:100350006868864277D201F003F9002873D1A86853
:10036000E968382460432A681018002960D088475B
:1003700000285DD1A868461CAE6028680028E7D137
:1003800061E0286800283CD0A8686968884238D2B3
:1003900001F0E6F8002834D1A868E9683824604301
:1003A0002A681018002921D0884700281ED1A86883
:1003B000401CA86029680029E7D122E0012803D168
:1003C000A06845432068401900F012FEA068401C58
:1003D000A06038E0012803D1B068444330680019B8
:1003E00000F006FEB068401CB0602CE0012803D18C
:1003F000A86844432868001900F0FAFDA868401C6A
:10040000A8606868A96881421DD301F0A9F81AE0C4
:10041000012805D11148014688684443086800193D
:1004200000F0E6FD0D4801468868401C88600AE03F
:10043000012803D1A86844432868001900F0D8FDBA
:10044000A868401CA86001F08BF8002801D100F0DA
:1004500059FB012005B0F0BD0018002080180020D5
:10046000445010B0555010B0F0B503AFE3B000F0F9
:10047000E5FF002819D0002668460660212047497C
:10048000052209AD2B4600F0B9FF3AA820242946E1
:10049000224600F09DFA3AA8805D00280DD1761C16
:1004A0004022202EF7D3254653E04C484D4979444D
:1004B0000E2200F08DFA002068E000200390C14376
:1004C000402007903F223546029633460E46089656
:1004D000059506920493DDB27543039934466C4347
:1004E0003AAE325D080210433A2101F08BFF3055DD
:1004F000089E6D1E28462030F0D13AA8059A825CED
:1005000027A0435C0798401E0790C0B211AC23544B
:10051000049C631C002A00D02346DDB2069C621EA8
:10052000202DD5D33F280FD80029029D079A0DD141
:10053000E0B2401C521C3F2808D811A9095C401C9D
:100540003129F7D0421E01E0029D079AFF200542A3
:100550000DD0164610462946401EC2B211AB3124BA
:100560009C54491EFF221142F6D13246521BD0B292
:1005700040210C1A652C0BD211A90918174D2846D9
:10058000224600F025FA00202855012063B0F0BD76
:1005900013480068032101F09BFFC046301900207A
:1005A0003132333435363738394142434445464792
:1005B000484A4B4C4D4E505152535455565758592A
:1005C0005A6162636465666768696A6B6D6E6F70B5
:1005D0007172737475767778797A00004419002007
:1005E000A8190020B8220000B0B502AF224C244860
:1005F00078442060052060602248784420612248C9
:100600007844E060032020760025E561204618301C
:1006100000F06AFFE06100F0A1FBA56020680028FF
:1006200028D0E0691549884216D123E060688542E8
:1006300020D200F095FF00281CD1A068E168382581
:10064000684322681018002909D08847002806D17D
:10065000A068451CA56020680028E7D10AE00128B1
:1006600003D1A06845432068401900F0C1FCA06890
:10067000401CA060B0BDC04680180020445010B09F
:10068000601F0000AF0100001D020000F0B503AFC5
:1006900091B0002610960F960E960DA806803E4D3E
:1006A00028680B9001AC204601F006FFA0852C6065
:1006B0002C463A4D30E001A98E850B9921600F221E
:1006C0001203024009231B039A4203D003235B0356
:1006D0009A4202D10DAA108006E0314A10400D2244
:1006E000D20202430DA802800D98000A0F9A2D4BEA
:1006F00098540D980F9A9A1850700F98801C0F906C
:1007000021600DA806800B9101AC204601F0D4FEBB
:10071000A08521490C60204C2842CCD10F98109024
:1007200000240F940E981099C0B289B200F022FDF7
:1007300010900E94109800280CD01A480178802947
:100740000DD1407809210903FE280EDDFF281DD1B7
:1007500011B0F0BD10480068134901F0B9FE0E4811
:1007600000683721490201F0B3FE002806D00128B5
:1007700008D002280AD110980F9003E080200E9A2A
:1007800002430E920448006801F0A2FE024800688D
:100790006D21090201F09CFEA8190020FFFF000056
:1007A000FF070000F819002082690000D0B502AFF1
:1007B000A6B01749884217D01649884218D0164962
:1007C000884222D100F03AFE00281ED16C4600215A
:1007D0009822204600F0F2F80F202070204600F00A
:1007E0006BFDFFF741FE0EE0002000F05FFE0CE025
:1007F0000A4C2069401C2061FFF736FE002802D118
:100800002069401E2061FFF7EFFE002026B0D0BD1A
:1008100003000080020000800100008030190020E9
:10082000B0B502AF04466078022810D107212046F7
:1008300000F020FC7D21CD0041190648814204D3FF
:100840000721204600F016FC401900F043FC20462A
:10085000B0BDC046B80B00000148002101607047E0
:10086000A8190020F0B503AF83B002920C460190A6
:100870004A4DAC420FD0494E40253046294601F042
:10088000C7FD02984028024600D32A46304621463A
:1008900000F09EF8414DA878052800D976E0C046C2
:1008A0007844007940008744020C1371711F0026C0
:1008B000AE716E712E71EE7040212846019A9047FC
:1008C0000BE0E81C042100F07BFD4021284601E0FC
:1008D00032484021019A90470026314800210160AA
:1008E0003046C0B203B0F0BDE8782D4C2168090A4B
:1008F00000268842F1D128792168C9B28842ECD11A
:10090000284B0298C018051F206800280ED02946E1
:1009100019402548026891421E4600D905682A46BA
:100920003240224800681D49491D21E001931B49BE
:1009300088794979090201431D4801600168412213
:1009400092009142C9D80168174801601749194AB5
:100950000A601949029A55182946019E31400268D9
:10096000914200D905682A4632400C48C11D114801
:1009700000F02EF835400D480168491901600A4819
:100980000168491B01602068401C2060064801681E
:10099000012002260029A4D19FE7C046AC190020FF
:1009A000EC190020FFFF0000F4190020FC1A0020C1
:1009B000F0190020F8190020F9FF010080B500AF00
:1009C0000B46002A03D011461A4601F027FD80BDD0
:1009D000B0B502AF88420DD9002A14D0491E524248
:1009E000401E0023DB431C4654430D5D0555521C3D
:1009F000F9D108E0002A06D000239CB20D5D055510
:100A00005B1C521EF9D1B0BD014800210160704746
:100A1000EC190020F0B503AF87B0019303920E46A6
:100A20000490002E42D0314D0020286030493148DA
:100A30000860314C601D3B210590029101F0E8FCFB
:100A40000520A0702868000AE07028682071B1B203
:100A500028680028069109D03B290A4600D3029A4B
:100A600023480346196805981E460AE0300A60715B
:100A7000A671392039290A4600D302461C4E316836
:100A8000E01D0592FFF7A4FF184D30683146059E22
:100A9000801908602868401C286040212046049A7C
:100AA00090470698861B15480642C3D10F4800247C
:100AB000046080200199014201D000F065FC01989A
:100AC00080060FD40C4C40212046039A9047C2B2B6
:100AD000402AF8D804982146FFF7C4FE0228F2D134
:100AE00007480468A0B207B0F0BDC046EC1900206A
:100AF000FC1A0020F8190020AC190020FFFF0000AC
:100B0000F019002080B500AF00F02AFD00280BD1BD
:100B10000648602101700021417002228270C1707C
:100B20000171052100F0FEFC80BDC04600180020C8
:100B3000D0B502AF1548C078401E072824D8C0465B
:100B4000784400794000874403181F141F1F1F1C9E
:100B50000F4C0121204600F0CFFF204600F0B4FFEB
:100B60000C48007801280FD10B480068102101F0D3
:100B7000AFFC074800F0C3FFD0BD054800F0C3FF3D
:100B8000D0BD034800F0BDFFD0BDC0460018002016
:100B9000241B0020001B0020A81900207F210140F9
:100BA0000148405C7047C046011B002080B500AF83
:100BB0000F480179042908D0022911D001290ED14A
:100BC000811D0D4800F0A4FE80BDC2787F21114038
:100BD0004279084B5A54821D074800F0CBFE80BD75
:100BE000C2787F211140821D034800F009FF80BDBB
:100BF00000180020011B0020241B0020F0B503AFCB
:100C000083B0019202465D1C002B00D11D46019865
:100C1000FF2843D8254E50203070019CE01C0091E5
:100C2000010A7170B070802002430292F27020209D
:100C3000307174710621304600F074FC0098214632
:100C400000F070FC002D0DD128E0002D02D06C1EAC
:100C5000012D25D0152902D1B079000720D500F04B
:100C600029F8254600F07CFC002801D1FFF74AFF57
:100C7000802100243046224600F08EFC3178062880
:100C8000E3D11029E1D1F078029A9042DDD1307998
:100C90000228DAD17079019A9042D6D103B0F0BD22
:100CA00003480068102101F013FCC0460018002022
:100CB000A819002080B500AF0D488278417809025C
:100CC00011430078102808D00F280DD100200429E6
:100CD0000DD1FFF72DFF012080BD0020062906D38E
:100CE000FFF764FF012080BD0220FFF703FA80BDFB
:100CF0000018002080B500AF0A4601468220142368
:100D0000FFF77CFF80BD0000D0B502AF072000F0E8
:100D10001DFB0A4800240470094804800948048027
:100D20000948048009480470FFF76EFE0848046013
:100D30000848046008480460D0BDC046081B002075
:100D40000A1B00200C1B00200E1B0020001B002093
:100D5000101B0020141B0020181B0020014800213C
:100D600001607047101B0020B0B502AF0D4604466D
:100D7000206B00280CD000F0D1FA014620468847AD
:100D800000F0CCFA0021002810D0012800D0044641
:100D9000002D07D02046A8470021002806D00128B2
:100DA00000D004462046FFF79FF901210846B0BD58
:100DB000B0B502AF8EB00C460546686B00280CD06B
:100DC00000F0ACFA01462846884700F0A7FA002157
:100DD000002816D0012800D005466846382229464A
:100DE000FFF7F6FD686A0490A86A0590002C04D00D
:100DF0002846A0470021002803D06846FFF774F971
:100E0000012108460EB0B0BDB0B502AF0D46044694
:100E1000E06A00280CD000F081FA0146204688479D
:100E200000F07CFA0021002810D0012800D00446F0
:100E3000002D07D02046A8470021002806D0012811
:100E400000D004462046FFF74FF901210846B0BD07
:100E5000F0B503AF87B0029303920591002976D0D5
:100E600004900D9801900C98009000260696344648
:100E700000F076FB002855D138207043049D2E18D1
:100E8000364B1A680121964200D0069906912856E1
:100E9000002841DA2020355C0221715E4A1B03984C
:100EA000824239DC6918F28889180398884233DA5B
:100EB0000421705E421B02998A422DDC401931895F
:100EC00040180299814227DA1868864210D01868C3
:100ED00000280DD00198002805D030460199884798
:100EE0001E4B002818D018680199FFF73DFF08E055
:100EF0000098012809D002280ED130460199FFF749
:100F000083FF164B002807D023E030460199FFF7F6
:100F10004FFF124B00281FD1641CE6B20598864291
:100F2000A6D300E00D4B0698000610D018680028E4
:100F30000DD000F015FB0949002808D10868019977
:100F4000FFF712FF054D002801D00020286007B0F0
:100F5000F0BD00201860FAE71E60F8E7101B0020C3
:100F6000F0B503AF8BB00C46014604AD1C222846F9
:100F70000392FFF72DFD2168E980626802952A81BE
:100F8000A0681A4E65233546337092B242438BB245
:100F90005343D9084E1C0722134200D10E46314656
:100FA00001910426864070181D30010A6970A870EE
:100FB0000321284600F0B6FA0298039900F0B2FA2D
:100FC000A06828700121284600F0ACFAE06800F023
:100FD000A5F9B1B200F0A6FA019885B2206900F037
:100FE0009DF9294600F09EFA0BB0F0BD00180020D4
:100FF000F0B503AF81B0044620787F260640002E6E
:101000002ED0E06900281DD000F088F90546052E95
:1010100002D1A07E002825D0284601F067FA0646B6
:1010200013486521017031461C310A0A42708170F3
:10103000032100F077FA1C21204600F073FAB1B2C8
:1010400028460BE00A4865210170002141701C25EB
:101050008570032100F066FA2046294600F062FA06
:1010600001B0F0BD20462946FFF77AFFF8E7C046F9
:101070000018002080B500AF0A46C16900F001F8F1
:1010800080BDF0B503AF81B0164604460025002CA4
:101090001CD02078072801D0022817D1084600F07C
:1010A0003DF9002812D001F021FA4643E08886423B
:1010B0000CD9311A7D2000014843A17E01F01CF9B2
:1010C000A17A4900C9B264224A431518284601B0E2
:1010D000F0BD000080B500AF074A4E21117000211D
:1010E000517002219170010AD170107105211046D2
:1010F00000F018FA80BDC04600180020F0B503AF1C
:1011000081B00446002C2ED0184802688A4203D1D0
:10111000174A13685B1C136006680E43144A15686F
:10112000002901D0066005E000230360136001235D
:10113000DB071E430068884201D000201060082DA4
:101140000ED30321284601F05DF9012080073043CA
:101150000029014600D03146002902DB084600E0A4
:1011600030462946A04701B0F0BDC046141B002000
:10117000181B0020F0B503AF81B004460F200442D5
:1011800006D02046FEF788FF0546A8B201B0F0BDA4
:101190001026264000292AD0002E28D13D4800786C
:1011A00007280BD0002804D02046FEF775FF002842
:1011B0000AD039480068092101F08AF93D4878448D
:1011C00000222023FFF726FC002532480570334813
:1011D0000580334805803348058033480570A006F4
:1011E000D3D4FFF78FFC200601D500F0CDF8002EF8
:1011F0000CD1600648D4274800210170274801809F
:10120000274801802748018027480170284C244E38
:1012100008E0FFF7CBFC3088002803D032E0022042
:10122000FEF768FF00F09CF9002801D1FFF76AFC87
:101230008021002520462A4600F0AEF9C11EA27882
:1012400063781B021343994210D11749097800298A
:1012500002D0FFF72FFDE5E7217810290FD00F29E5
:10126000DDD1042802D1FFF763FCDBE70020094948
:1012700008700A49088030800A490880D2E70628A9
:10128000C7D282E7358880E70548008807494518B6
:101290007BE7C046081B0020A81900200A1B00207D
:1012A0000C1B00200E1B0020001B0020FBFF000079
:1012B0000018002033FBFFFFF0B503AF81B00446F8
:1012C000144D1AE000F04CF9002801D1FFF71AFC88
:1012D000802100262846324600F05EF9287815283D
:1012E00004D8012181400C48014203D1FFF7E2FC00
:1012F0000028E7D1012020706660204600F0F4F855
:101300000028DFD002498842DCD001B0F0BDC046E1
:10131000445010B0001800202070200080B500AFAD
:101320000449884204D30449884201D200F006F8F7
:1013300080BDC0460000D0C08027D0C07A46024998
:10134000C91C891A401A70473D13D0C080B500AF40
:1013500084B00A4901910A490A680292039001A8DF
:10136000004601DF00460748019A824201D104B0DD
:1013700080BD0868042101F0ABF8C0463701006069
:10138000A8190020C601009080B500AF82B00948BE
:1013900000900948016801916946084601DF01464D
:1013A0000649009A8A4201D102B080BD006804213A
:1013B00001F08EF800020060A8190020F1020090F0
:1013C00080B500AF84B00A4A00920A4A13680193BC
:1013D000029003916846004601DF00460649009BE3
:1013E0008B4201D104B080BD1068042101F070F877
:1013F0002C050060A819002067050090B0B502AF69
:1014000088B00B4C01940B4C2568029503AD0FC5B9
:101410000C98079001A8004601DF00460648019994
:10142000814201D108B0B0BD2068042101F050F81C
:101430002B510060A81900207F51009080B500AFAB
:1014400082B0094800900949086801906846004642
:1014500001DF0046064A009B934201D102B080BDE5
:101460000868042101F034F889580060A8190020A8
:101470004558009080B500AF82B0094800900948F7
:10148000016801916946084601DF01460649009A54
:101490008A4201D102B080BD0068042101F018F831
:1014A000D05A0060A8190020FB5A009080B500AF08
:1014B00084B00A4901910A490A680292039001A87E
:1014C000004601DF00460748019A824201D104B07C
:1014D00080BD0868042100F0FBFFC046E15F0060AA
:1014E000A81900206F5F009080B500AF84B00A4952
:1014F00001910A490A680292039001A8004601DF9F
:101500000046074A019B934201D104B080BD0868A0
:10151000042100F0DDFFC04658610060A8190020DA
:101520001F61009080B500AF84B00A4A00920A4A59
:1015300013680193029003916846004601DF00465C
:1015400006480099814201D104B080BD1068042191
:1015500000F0BEFF1C6A0060A8190020F36A00902A
:1015600080B500AF82B00948009009490868019031
:101570006846004601DF0046064A009B934201D1BF
:1015800002B080BD0868042100F0A2FFCF6B0060AC
:10159000A81900207F6B0090D0B502AF86B00B4B2E
:1015A00001930B4B1C68029403AC07C401A80046CE
:1015B00001DF00460749019A8A4202D180B206B093
:1015C000D0BD1868042100F083FFC046D16C0060D4
:1015D000A81900202B6C00900249002008600249E5
:1015E000086070471C1B0020201B0020D0B502AFF4
:1015F00006484F21017000244470012181700221AE
:10160000C1700421FFF78EFF2046D0BD00180020D6
:10161000F0B503AF83B001AD4F262E7000246C707F
:101620000220A8700320E8702C7105212846FFF7DE
:1016300079FF2E706C700120A870E8700421284694
:10164000FFF770FF204603B0F0BDD0B502AF82B007
:1016500001A84F21017000244470012181700221F2
:10166000C1700421FFF75EFF204602B0D0BD00002C
:10167000B0B502AF82B00F48002404600E48046089
:1016800068464F2505704470052585700425C57092
:10169000012505714171032A02D8D000074CC440CE
:1016A00068468471C3710821FFF73CFF002002B037
:1016B000B0BDC0461C1B0020201B002001040302FB
:1016C000D0B502AF82B068464F2202700024447049
:1016D000052282700422C27001220271417184715C
:1016E000C4710821FFF71EFF204602B0D0BD0000E4
:1016F000B0B502AF82B00D4668465021017000249B
:10170000447003218170C57040210171447106212C
:10171000FFF708FF8020054201D1074800E0054897
:1017200001687F2215400122AA400A430260204638
:1017300002B0B0BD1C1B0020201B0020F0B503AF81
:1017400083B00D4601A8502101700024447003218C
:101750008170C5708026067144710621FFF7E2FE94
:10176000354201D1074800E0054801687F22154055
:101770000122AA4091430160204603B0F0BDC0465B
:101780001C1B0020201B00208020014201D00648A5
:1017900000E0044800687F22114001228A40024094
:1017A000D0B27047201B00201C1B0020D0B502AF18
:1017B00082B068464F220270002444700222827078
:1017C0000322C27001710521FFF7ACFE204602B072
:1017D000D0BDB0B502AF82B01C4615466846502257
:1017E0000270E21C130A43708270C17020210171E3
:1017F00044710621FFF796FE28462146FFF792FE28
:10180000002002B0B0BDD0B502AF82B06846502310
:1018100003700024447003238370C1703021017170
:1018200042710621FFF77EFE204602B0D0BDF0B522
:1018300003AF81B015460E4604460220002C11D09D
:1018400049208100204600F0E3FD002E02D0112047
:1018500000012650FC200121215425702046FFF76D
:10186000BBFE0020C0B201B0F0BDD0B502AF04464F
:10187000FC2001212154452080002058002806D05A
:101880004068FFF74BFD02462179204690472046ED
:10189000FFF7DBFE2046FFF7A9FE0020D0BD0222A5
:1018A000002903D04522920081500022D0B2704717
:1018B00080B500AFFFF7ACFE002080BDB0B502AF31
:1018C0000C46054645208000285800280CD00068AA
:1018D000FFF724FD02462846214690470146022094
:1018E000002900D10846B0BD0220B0BDB0B502AF9E
:1018F0000C460546452080002858002806D0406840
:10190000FFF70CFD02462846214690470020B0BD57
:10191000F0B503AF81B004462120C600A5192846C2
:1019200000F069FBF4200121215087204000205A5B
:10193000F8216050A15D1F200840022808D001282E
:101940000BD000280ED12046294600F0F1F80EE019
:101950002046294600F0D3FA09E02046294600F047
:10196000A6FA04E0802001402046FFF7C1FE0020D7
:1019700001B0F0BDF0B503AF81B015460E46044688
:10198000002E11D04520800020588069002834D0D6
:10199000FC21615C032930D1FFF7C0FC03462046DF
:1019A00031462A46984728E0F4202058032824D1BD
:1019B000902020588C21615822468C3281420AD9CD
:1019C000091A1160814200D301468AB22046294695
:1019D00000F070FC11E045208000205800690028CC
:1019E00008D0FC21615C032904D1FFF797FC014674
:1019F00020468847204600F065FC002001B0F0BD7D
:101A0000F0B503AF81B00D460446002D12D045203D
:101A100080002058002854D04069002851D0FC2173
:101A2000615C03294DD1FFF779FC02462046294627
:101A3000904746E0F420205802283AD1E069256A10
:101A4000A8420BD9401BE06109214A01A15849195C
:101A5000A15082B2204600F01EFC2AE0A669304662
:101A6000294600F0CFFCAE420FD300290DD1F8205B
:101A700020582546F835864207D2002620463146B2
:101A8000324600F008FC2E6013E04520800020580C
:101A900000280BD0C068002808D0FC21615C032915
:101AA00004D1FFF73BFC014620468847204600F062
:101AB00016FC012001026018615C012901D100219E
:101AC0000170002001B0F0BDD0B502AF04469020F7
:101AD000402121502162FC20012121544520800019
:101AE0002058002806D04068FFF718FC02462179EC
:101AF000204690470020D0BD017400207047002090
:101B0000704700207047D0B502AF0446FC20205C2F
:101B100003280AD1452080002058C069002804D03D
:101B2000FFF7FCFB0146204688470020D0BD00009F
:101B3000D0B502AF04464878092810D87844007917
:101B40004000874404080C150C19250C1D21204663
:101B500000F038F91FE0204600F076F91BE0802104
:101B60002046FFF7C5FD00212046FFF7C1FD12E02A
:101B7000204600F050F90EE0204600F097F80AE009
:101B8000204600F0FFF806E0204600F0BDF802E035
:101B9000204600F003F80020D0BD0000B0B502AF31
:101BA00082B00D4604466888010A4A1E80210E2A2A
:101BB0003ED8C0467A4412795200974407260C3921
:101BC000392E36393939393939391B00112000019C
:101BD0002058006812E0C0B2052829D8784400795E
:101BE00040008744024A4F54595E1120000120589A
:101BF000406803E0112000012058C069FFF78EFB08
:101C00000246207C01A9904725E04520800020580D
:101C1000217C002914D0C06A18E0207C002807D15C
:101C2000452080002058406B10E0207C002809D01F
:101C30002046FFF75DFD00212046FFF759FD1AE021
:101C4000806A03E0452080002058006BFFF766FBA8
:101C5000014601A88847014601A80288002A0AD047
:101C6000E888002807D0824200D3024601A80280FB
:101C7000204600F0F9FA02B0B0BD11200001205852
:101C80008068BBE7112000012058C068B6E711202A
:101C9000000120580069B1E7112000012058406977
:101CA000ACE71120000120588069A7E7F0B503AF29
:101CB00081B00A4604469088802100280BD1D08844
:101CC000002808D150887F260640FC20205C25464D
:101CD000FC35032808D12046FFF70AFD00212046E5
:101CE000FFF706FD01B0F0BDFE202654F1B22046FC
:101CF000FFF75CFD204600F0E5FA02200121002EEE
:101D000000D108462870EDE7F0B503AF81B0044676
:101D10008E788025022E1DD2FC20215C2046FC30CE
:101D2000032907D0022915D1002E26D06660032191
:101D3000017009E0002E16D0606886421DD0C1B245
:101D40002046FFF7D3FD666020463146FFF7B6FD1B
:101D5000022812D120462946FFF7CAFC002120465E
:101D6000FFF7C6FC0CE00221017066602046314698
:101D7000FFF7BCFD204600F0A5FA204600F0A2FACD
:101D800001B0F0BDD0B502AF0446C888802101285B
:101D90000AD1FC20205C03280ED0022804D10020A8
:101DA000A0602146083108E02046FFF7A1FC002191
:101DB0002046FFF79DFCD0BD211D0122204600F0EA
:101DC00053FAD0BDB0B502AF0446FC20205CFE2122
:101DD0000140022916D10120E060412080002158F5
:101DE00025460C350320002905D0204600F077FA5F
:101DF000E16802200843E06002222046294600F004
:101E000033FAB0BD80212046FFF772FC0021204646
:101E1000FFF76EFCB0BDB0B502AF0D460446688852
:101E2000012810D14120800001212150452080004F
:101E300020588068FFF772FA0246204629469047EC
:101E4000204600F03FFAB0BDB0B502AF0D460446E3
:101E5000FC20205CFE210140022914D16888012861
:101E600019D14120800000212150452080002058B8
:101E70008068FFF753FA02462046294690472046DD
:101E800000F020FAB0BD80212046FFF731FC002190
:101E90002046FFF72DFCB0BDD0B502AF044680212F
:101EA000FFF726FC00212046FFF722FCD0BDB0B58D
:101EB00002AF0D460446FC20205C8021032815D18A
:101EC000A888FE220240012A10D845208000205810
:101ED0008068FFF723FA0246204629469047E888A3
:101EE00000280AD1204600F0EDF906E02046FFF771
:101EF000FFFB00212046FFF7FBFB0020B0BDF0B543
:101F000003AF81B00E46044630786021014020299D
:101F10000AD14520800020588068FFF7FFF902466B
:101F200020463146904763E035797078802100285B
:101F300012D0012819D003285AD1FC20205C032894
:101F400017D1708800282DD1294380292AD0204616
:101F50002946FFF7CDFB25E0FC20205C03282FD08D
:101F600002280ED1680609D142E0FC20205C03283B
:101F70000FD0022805D12943802939D0204629468F
:101F800004E02046FFF7B4FB00212046FFF7B0FB3A
:101F90002EE0708800282BD168060DD020462946F7
:101FA000FFF7CCFB4520800020588068FFF7B6F98A
:101FB0000246204631469047204600F083F917E05C
:101FC00026461436204684300D4200D1064620466F
:101FD0002946FFF7D9FB0121002800D101467F20C7
:101FE00005402801315031180222204600F03CF90A
:101FF000002001B0F0BD0A7802704A7842708A78F9
:10200000CB781B02134343800A794B791B0213439D
:1020100083808A79C97909021143C1807047F0B57C
:1020200003AF83B00D46044602A80026068001A82F
:102030000670297860200840002810D0202839D167
:10204000687801460A39022934D302281CD00328B3
:102050001AD020462946FFF71FFF02262AE068789B
:102060000B2814D00A280FD0062823D16888000A2C
:10207000002621280FD022283246314617D102A847
:10208000009000F047F80AE001A901220FE0204685
:1020900000F018F90EE002A8009000F033F8009B61
:1020A00001461A88E888824200D302461A802046F8
:1020B00000F0DAF8F0B203B0F0BDF0B503AF81B0D4
:1020C00004468221022540262A463346FFF7D0FAED
:1020D000204629462A463346FFF7CAFA20462946B3
:1020E0003246FFF790FB002001B0F0BDD0B502AF43
:1020F00004468221FFF7E4FA02212046FFF7E0FAC6
:102100000020D0BD09210180014878447047C046B5
:102110009605000022210180014878447047C0469E
:1021200064050000B0B502AF144602214022FFF75B
:102130006AFB0D4D2878002813D10220FEF72EFDF2
:1021400002460D4878442146FEF78CFB022808D150
:1021500001202870054807210170054800680549DD
:1021600008800020B0BDC046001B0020081B0020D6
:10217000F01900200C1B0020ADEBFFFFF0B503AF02
:1021800081B0044649208500104800212A46FEF708
:1021900015FC002C15D00D4C0026204631462A4651
:1021A000FEF70CFC0A49794420463246FFF73FFB14
:1021B000084979442046FFF772FB2046FFF778FB79
:1021C00002E00248FFF751FB01B0F0BD241B0020E4
:1021D00016050000460500001220088001487844DA
:1021E0007047C046CB0400000420088001487844B2
:1021F0007047C046EE0400000E2008800148784475
:102200007047C046E20400000E2008800148784470
:102210007047C046620400000A20088001487844E4
:102220007047C046D00400000E2008800148784462
:102230007047C046420400000E20088001487844E0
:102240007047C046320400002921018001487844CB
:102250007047C046E20400000A210180014878442A
:102260007047C046FE040000B0B502AF0C46F42132
:10227000022343508261C261092149014450016A2D
:102280008A4200D30A4693B2002529462246FFF728
:10229000A0FA2846B0BDB0B502AF0C46016A8A422A
:1022A00000D30A4693B2002529462246FFF791FA49
:1022B0002846B0BDD0B502AF00242146FFF7A3FAEF
:1022C0002046D0BDD0B502AFF421042242500024F4
:1022D000214622462346FFF77CFA2046D0BDD0B5E2
:1022E00002AFF42105224250002421462246FFF786
:1022F0008AFA2046D0BD0000002243088B4274D3E6
:1023000003098B425FD3030A8B4244D3030B8B42F6
:1023100028D3030C8B420DD3FF22090212BA030CFF
:102320008B4202D31212090265D0030B8B4219D3E0
:1023300000E0090AC30B8B4201D3CB03C01A524100
:10234000830B8B4201D38B03C01A5241430B8B4248
:1023500001D34B03C01A5241030B8B4201D30B0331
:10236000C01A5241C30A8B4201D3CB02C01A524158
:10237000830A8B4201D38B02C01A5241430A8B421B
:1023800001D34B02C01A5241030A8B4201D30B0204
:10239000C01A5241CDD2C3098B4201D3CB01C01A1E
:1023A000524183098B4201D38B01C01A5241430928
:1023B0008B4201D34B01C01A524103098B4201D316
:1023C0000B01C01A5241C3088B4201D3CB00C01A83
:1023D000524183088B4201D38B00C01A52414308FB
:1023E0008B4201D34B00C01A5241411A00D2014620
:1023F000524110467047FFE701B5002000F006F893
:1024000002BDC0460029F7D076E770477047C04646
:1024100010B5002200F002F810BDC046130010B540
:102420000A00190000F002F810BDC04670B583071D
:102430003FD0541E002A3BD0CEB20300032503E058
:10244000621E002C34D0140001335A1E16702B4229
:10245000F6D1032C24D9FF250D402A0215432A0466
:1024600015430F2C11D92600103E360901363601CE
:102470001A009B19156055609560D5601032934223
:10248000F8D10F221440032C0AD9261FB6080136B2
:10249000B6001A009B1920C29342FCD103221440BB
:1024A000002C05D0C9B21C19197001339C42FBD114
:1024B00070BD14000300CCE7F0C041464A465346C5
:1024C0005C466D4676467EC02838F0C800207047CE
:1024D00010307CC890469946A246AB46B54608C81F
:1024E0002838F0C8081C00D10120184710B5830710
:1024F00027D00378002B26D00300032102E01A78AE
:10250000002A1CD001330B42F9D119680F4A104C34
:102510008A188A4322420FD1043319680B4A8A1859
:102520008A43224208D104331968084A8A188A4328
:102530002242F1D000E001331A78002AFBD1181AA8
:1025400010BD0300E1E70020FAE7C046FFFEFEFEF3
:1025500080808080030000000000800020000000D8
:102560000100000000000000FFFFFF00000000006D
:10257000000000000000000000000000000000005B
:102580000000000000000000000000000702000042
:102590000C0080000B00000000000000FFFFFF00A7
:1025A000000000000A8000006C26D0C0000000007F
:1025B000000000000000000000000000000000001B
:1025C00000000000070217001A0052000B008A00EA
:1025D00000000000FFFFFF000000000008801A005C
:1025E000441900200000000000000000000000006E
:1025F00000000000000000000000000005000300D3
:102600000C0007000700000000000000FFFFFF00B3
:1026100000000000000007000000000000000000B3
:1026200000000000000000000000000000000000AA
:1026300000000000050075000D0008000600000005
:1026400000000000FFFFFF00000000000000060087
:10265000000000000000000000000000000000007A
:1026600000000000000000000000000041646472EF
:10267000657373000E034E0061006E006F00200052
:10268000530006A0FF0901A1010903150026FF0060
:102690007508954081080904150026FF0075089506
:1026A000409108C0092111010001222200120100FD
:1026B0000200000040972C0100000201020301000B
:1026C000D921D0C0E921D0C0F921D0C00922D0C081
:1026D0001922D0C02922D0C03922D0C00000000069
:1026E000040309040E034C006500640067006500E4
:1026F00072000A033000300030003100BB20D0C02F
:10270000ED20D0C01F20D0C000000000000000005D
:10271000000000002521D0C00000000000000000E3
:10272000000000004922D0C04922D0C04922D0C0B8
:102730005922D0C009022900010102C03209040057
:1027400000020300000209211101000122220007FA
:10275000058203400001070502034000010000005C
:102760000A0600020000004001004E6F74206176EE
:1027700061696C61626C650000000000000000008F
:04000005C0D0000166
:00000001FF
